{
  "_format": "hh-sol-artifact-1",
  "contractName": "RWAToken",
  "sourceName": "contracts/RWAToken.sol",
  "abi": [
    {
      "inputs": [
        {
          "internalType": "string",
          "name": "name",
          "type": "string"
        },
        {
          "internalType": "string",
          "name": "symbol",
          "type": "string"
        },
        {
          "internalType": "uint256",
          "name": "initialSupply",
          "type": "uint256"
        },
        {
          "internalType": "string",
          "name": "_propertyCoordinates",
          "type": "string"
        }
      ],
      "stateMutability": "nonpayable",
      "type": "constructor"
    },
    {
      "inputs": [
        {
          "internalType": "address",
          "name": "spender",
          "type": "address"
        },
        {
          "internalType": "uint256",
          "name": "allowance",
          "type": "uint256"
        },
        {
          "internalType": "uint256",
          "name": "needed",
          "type": "uint256"
        }
      ],
      "name": "ERC20InsufficientAllowance",
      "type": "error"
    },
    {
      "inputs": [
        {
          "internalType": "address",
          "name": "sender",
          "type": "address"
        },
        {
          "internalType": "uint256",
          "name": "balance",
          "type": "uint256"
        },
        {
          "internalType": "uint256",
          "name": "needed",
          "type": "uint256"
        }
      ],
      "name": "ERC20InsufficientBalance",
      "type": "error"
    },
    {
      "inputs": [
        {
          "internalType": "address",
          "name": "approver",
          "type": "address"
        }
      ],
      "name": "ERC20InvalidApprover",
      "type": "error"
    },
    {
      "inputs": [
        {
          "internalType": "address",
          "name": "receiver",
          "type": "address"
        }
      ],
      "name": "ERC20InvalidReceiver",
      "type": "error"
    },
    {
      "inputs": [
        {
          "internalType": "address",
          "name": "sender",
          "type": "address"
        }
      ],
      "name": "ERC20InvalidSender",
      "type": "error"
    },
    {
      "inputs": [
        {
          "internalType": "address",
          "name": "spender",
          "type": "address"
        }
      ],
      "name": "ERC20InvalidSpender",
      "type": "error"
    },
    {
      "inputs": [],
      "name": "EnforcedPause",
      "type": "error"
    },
    {
      "inputs": [],
      "name": "ExpectedPause",
      "type": "error"
    },
    {
      "inputs": [
        {
          "internalType": "address",
          "name": "owner",
          "type": "address"
        }
      ],
      "name": "OwnableInvalidOwner",
      "type": "error"
    },
    {
      "inputs": [
        {
          "internalType": "address",
          "name": "account",
          "type": "address"
        }
      ],
      "name": "OwnableUnauthorizedAccount",
      "type": "error"
    },
    {
      "anonymous": false,
      "inputs": [
        {
          "indexed": true,
          "internalType": "address",
          "name": "owner",
          "type": "address"
        },
        {
          "indexed": true,
          "internalType": "address",
          "name": "spender",
          "type": "address"
        },
        {
          "indexed": false,
          "internalType": "uint256",
          "name": "value",
          "type": "uint256"
        }
      ],
      "name": "Approval",
      "type": "event"
    },
    {
      "anonymous": false,
      "inputs": [
        {
          "indexed": false,
          "internalType": "uint8",
          "name": "oldScore",
          "type": "uint8"
        },
        {
          "indexed": false,
          "internalType": "uint8",
          "name": "newScore",
          "type": "uint8"
        }
      ],
      "name": "HealthScoreUpdated",
      "type": "event"
    },
    {
      "anonymous": false,
      "inputs": [
        {
          "indexed": false,
          "internalType": "uint256",
          "name": "totalAmount",
          "type": "uint256"
        }
      ],
      "name": "InsurancePayoutTriggered",
      "type": "event"
    },
    {
      "anonymous": false,
      "inputs": [
        {
          "indexed": true,
          "internalType": "address",
          "name": "previousOwner",
          "type": "address"
        },
        {
          "indexed": true,
          "internalType": "address",
          "name": "newOwner",
          "type": "address"
        }
      ],
      "name": "OwnershipTransferred",
      "type": "event"
    },
    {
      "anonymous": false,
      "inputs": [
        {
          "indexed": false,
          "internalType": "address",
          "name": "account",
          "type": "address"
        }
      ],
      "name": "Paused",
      "type": "event"
    },
    {
      "anonymous": false,
      "inputs": [
        {
          "indexed": false,
          "internalType": "address",
          "name": "seller",
          "type": "address"
        },
        {
          "indexed": false,
          "internalType": "uint256",
          "name": "amount",
          "type": "uint256"
        },
        {
          "indexed": false,
          "internalType": "uint256",
          "name": "payout",
          "type": "uint256"
        }
      ],
      "name": "TokensSold",
      "type": "event"
    },
    {
      "anonymous": false,
      "inputs": [
        {
          "indexed": false,
          "internalType": "address",
          "name": "account",
          "type": "address"
        }
      ],
      "name": "TradingPaused",
      "type": "event"
    },
    {
      "anonymous": false,
      "inputs": [
        {
          "indexed": false,
          "internalType": "address",
          "name": "account",
          "type": "address"
        }
      ],
      "name": "TradingUnpaused",
      "type": "event"
    },
    {
      "anonymous": false,
      "inputs": [
        {
          "indexed": true,
          "internalType": "address",
          "name": "from",
          "type": "address"
        },
        {
          "indexed": true,
          "internalType": "address",
          "name": "to",
          "type": "address"
        },
        {
          "indexed": false,
          "internalType": "uint256",
          "name": "value",
          "type": "uint256"
        }
      ],
      "name": "Transfer",
      "type": "event"
    },
    {
      "anonymous": false,
      "inputs": [
        {
          "indexed": false,
          "internalType": "address",
          "name": "account",
          "type": "address"
        }
      ],
      "name": "Unpaused",
      "type": "event"
    },
    {
      "anonymous": false,
      "inputs": [
        {
          "indexed": false,
          "internalType": "uint256",
          "name": "oldValuation",
          "type": "uint256"
        },
        {
          "indexed": false,
          "internalType": "uint256",
          "name": "newValuation",
          "type": "uint256"
        }
      ],
      "name": "ValuationUpdated",
      "type": "event"
    },
    {
      "anonymous": false,
      "inputs": [
        {
          "indexed": false,
          "internalType": "uint256",
          "name": "oldRate",
          "type": "uint256"
        },
        {
          "indexed": false,
          "internalType": "uint256",
          "name": "newRate",
          "type": "uint256"
        }
      ],
      "name": "YieldRateUpdated",
      "type": "event"
    },
    {
      "stateMutability": "payable",
      "type": "fallback"
    },
    {
      "inputs": [
        {
          "internalType": "address",
          "name": "owner",
          "type": "address"
        },
        {
          "internalType": "address",
          "name": "spender",
          "type": "address"
        }
      ],
      "name": "allowance",
      "outputs": [
        {
          "internalType": "uint256",
          "name": "",
          "type": "uint256"
        }
      ],
      "stateMutability": "view",
      "type": "function"
    },
    {
      "inputs": [
        {
          "internalType": "address",
          "name": "spender",
          "type": "address"
        },
        {
          "internalType": "uint256",
          "name": "value",
          "type": "uint256"
        }
      ],
      "name": "approve",
      "outputs": [
        {
          "internalType": "bool",
          "name": "",
          "type": "bool"
        }
      ],
      "stateMutability": "nonpayable",
      "type": "function"
    },
    {
      "inputs": [
        {
          "internalType": "address",
          "name": "account",
          "type": "address"
        }
      ],
      "name": "balanceOf",
      "outputs": [
        {
          "internalType": "uint256",
          "name": "",
          "type": "uint256"
        }
      ],
      "stateMutability": "view",
      "type": "function"
    },
    {
      "inputs": [
        {
          "internalType": "uint256",
          "name": "amount",
          "type": "uint256"
        }
      ],
      "name": "buyTokens",
      "outputs": [],
      "stateMutability": "payable",
      "type": "function"
    },
    {
      "inputs": [],
      "name": "decimals",
      "outputs": [
        {
          "internalType": "uint8",
          "name": "",
          "type": "uint8"
        }
      ],
      "stateMutability": "view",
      "type": "function"
    },
    {
      "inputs": [],
      "name": "fundInsurancePool",
      "outputs": [],
      "stateMutability": "payable",
      "type": "function"
    },
    {
      "inputs": [],
      "name": "healthScore",
      "outputs": [
        {
          "internalType": "uint8",
          "name": "",
          "type": "uint8"
        }
      ],
      "stateMutability": "view",
      "type": "function"
    },
    {
      "inputs": [],
      "name": "insurancePool",
      "outputs": [
        {
          "internalType": "uint256",
          "name": "",
          "type": "uint256"
        }
      ],
      "stateMutability": "view",
      "type": "function"
    },
    {
      "inputs": [],
      "name": "name",
      "outputs": [
        {
          "internalType": "string",
          "name": "",
          "type": "string"
        }
      ],
      "stateMutability": "view",
      "type": "function"
    },
    {
      "inputs": [],
      "name": "owner",
      "outputs": [
        {
          "internalType": "address",
          "name": "",
          "type": "address"
        }
      ],
      "stateMutability": "view",
      "type": "function"
    },
    {
      "inputs": [],
      "name": "pauseTrading",
      "outputs": [],
      "stateMutability": "nonpayable",
      "type": "function"
    },
    {
      "inputs": [],
      "name": "paused",
      "outputs": [
        {
          "internalType": "bool",
          "name": "",
          "type": "bool"
        }
      ],
      "stateMutability": "view",
      "type": "function"
    },
    {
      "inputs": [],
      "name": "propertyCoordinates",
      "outputs": [
        {
          "internalType": "string",
          "name": "",
          "type": "string"
        }
      ],
      "stateMutability": "view",
      "type": "function"
    },
    {
      "inputs": [],
      "name": "renounceOwnership",
      "outputs": [],
      "stateMutability": "nonpayable",
      "type": "function"
    },
    {
      "inputs": [
        {
          "internalType": "uint256",
          "name": "amount",
          "type": "uint256"
        }
      ],
      "name": "sellTokens",
      "outputs": [],
      "stateMutability": "nonpayable",
      "type": "function"
    },
    {
      "inputs": [
        {
          "internalType": "uint256",
          "name": "_newRate",
          "type": "uint256"
        }
      ],
      "name": "setYieldRate",
      "outputs": [],
      "stateMutability": "nonpayable",
      "type": "function"
    },
    {
      "inputs": [],
      "name": "symbol",
      "outputs": [
        {
          "internalType": "string",
          "name": "",
          "type": "string"
        }
      ],
      "stateMutability": "view",
      "type": "function"
    },
    {
      "inputs": [],
      "name": "tokenPrice",
      "outputs": [
        {
          "internalType": "uint256",
          "name": "",
          "type": "uint256"
        }
      ],
      "stateMutability": "view",
      "type": "function"
    },
    {
      "inputs": [],
      "name": "totalSupply",
      "outputs": [
        {
          "internalType": "uint256",
          "name": "",
          "type": "uint256"
        }
      ],
      "stateMutability": "view",
      "type": "function"
    },
    {
      "inputs": [
        {
          "internalType": "address",
          "name": "to",
          "type": "address"
        },
        {
          "internalType": "uint256",
          "name": "value",
          "type": "uint256"
        }
      ],
      "name": "transfer",
      "outputs": [
        {
          "internalType": "bool",
          "name": "",
          "type": "bool"
        }
      ],
      "stateMutability": "nonpayable",
      "type": "function"
    },
    {
      "inputs": [
        {
          "internalType": "address",
          "name": "from",
          "type": "address"
        },
        {
          "internalType": "address",
          "name": "to",
          "type": "address"
        },
        {
          "internalType": "uint256",
          "name": "value",
          "type": "uint256"
        }
      ],
      "name": "transferFrom",
      "outputs": [
        {
          "internalType": "bool",
          "name": "",
          "type": "bool"
        }
      ],
      "stateMutability": "nonpayable",
      "type": "function"
    },
    {
      "inputs": [
        {
          "internalType": "address",
          "name": "newOwner",
          "type": "address"
        }
      ],
      "name": "transferOwnership",
      "outputs": [],
      "stateMutability": "nonpayable",
      "type": "function"
    },
    {
      "inputs": [],
      "name": "triggerInsurancePayout",
      "outputs": [],
      "stateMutability": "nonpayable",
      "type": "function"
    },
    {
      "inputs": [],
      "name": "unpauseTrading",
      "outputs": [],
      "stateMutability": "nonpayable",
      "type": "function"
    },
    {
      "inputs": [
        {
          "internalType": "uint8",
          "name": "newScore",
          "type": "uint8"
        }
      ],
      "name": "updateHealthScore",
      "outputs": [],
      "stateMutability": "nonpayable",
      "type": "function"
    },
    {
      "inputs": [
        {
          "internalType": "uint256",
          "name": "newValuation",
          "type": "uint256"
        }
      ],
      "name": "updateValuation",
      "outputs": [],
      "stateMutability": "nonpayable",
      "type": "function"
    },
    {
      "inputs": [],
      "name": "valuation",
      "outputs": [
        {
          "internalType": "uint256",
          "name": "",
          "type": "uint256"
        }
      ],
      "stateMutability": "view",
      "type": "function"
    },
    {
      "inputs": [],
      "name": "yieldRate",
      "outputs": [
        {
          "internalType": "uint256",
          "name": "",
          "type": "uint256"
        }
      ],
      "stateMutability": "view",
      "type": "function"
    },
    {
      "stateMutability": "payable",
      "type": "receive"
    }
  ],
  "bytecode": "0x60806040526064600560156101000a81548160ff021916908360ff160217905550662386f26fc1000060085560646009553480156200003d57600080fd5b5060405162002b6538038062002b6583398181016040528101906200006391906200071b565b338484816003908162000077919062000a2b565b50806004908162000089919062000a2b565b505050600073ffffffffffffffffffffffffffffffffffffffff168173ffffffffffffffffffffffffffffffffffffffff1603620001015760006040517f1e4fbdf7000000000000000000000000000000000000000000000000000000008152600401620000f8919062000b57565b60405180910390fd5b62000112816200014160201b60201c565b50806007908162000124919062000a2b565b506200013733836200020760201b60201c565b5050505062000c49565b6000600560009054906101000a900473ffffffffffffffffffffffffffffffffffffffff16905081600560006101000a81548173ffffffffffffffffffffffffffffffffffffffff021916908373ffffffffffffffffffffffffffffffffffffffff1602179055508173ffffffffffffffffffffffffffffffffffffffff168173ffffffffffffffffffffffffffffffffffffffff167f8be0079c531659141344cd1fd0a4f28419497f9722a3daafe3b4186f6b6457e060405160405180910390a35050565b600073ffffffffffffffffffffffffffffffffffffffff168273ffffffffffffffffffffffffffffffffffffffff16036200027c5760006040517fec442f0500000000000000000000000000000000000000000000000000000000815260040162000273919062000b57565b60405180910390fd5b62000290600083836200029460201b60201c565b5050565b620002a4620002bc60201b60201c565b620002b78383836200030660201b60201c565b505050565b620002cc6200053660201b60201c565b1562000304576040517fd93c066500000000000000000000000000000000000000000000000000000000815260040160405180910390fd5b565b600073ffffffffffffffffffffffffffffffffffffffff168373ffffffffffffffffffffffffffffffffffffffff16036200035c5780600260008282546200034f919062000ba3565b9250508190555062000432565b60008060008573ffffffffffffffffffffffffffffffffffffffff1673ffffffffffffffffffffffffffffffffffffffff16815260200190815260200160002054905081811015620003eb578381836040517fe450d38c000000000000000000000000000000000000000000000000000000008152600401620003e29392919062000bef565b60405180910390fd5b8181036000808673ffffffffffffffffffffffffffffffffffffffff1673ffffffffffffffffffffffffffffffffffffffff16815260200190815260200160002081905550505b600073ffffffffffffffffffffffffffffffffffffffff168273ffffffffffffffffffffffffffffffffffffffff16036200047d5780600260008282540392505081905550620004ca565b806000808473ffffffffffffffffffffffffffffffffffffffff1673ffffffffffffffffffffffffffffffffffffffff168152602001908152602001600020600082825401925050819055505b8173ffffffffffffffffffffffffffffffffffffffff168373ffffffffffffffffffffffffffffffffffffffff167fddf252ad1be2c89b69c2b068fc378daa952ba7f163c4a11628f55a4df523b3ef8360405162000529919062000c2c565b60405180910390a3505050565b6000600560149054906101000a900460ff16905090565b6000604051905090565b600080fd5b600080fd5b600080fd5b600080fd5b6000601f19601f8301169050919050565b7f4e487b7100000000000000000000000000000000000000000000000000000000600052604160045260246000fd5b620005b6826200056b565b810181811067ffffffffffffffff82111715620005d857620005d76200057c565b5b80604052505050565b6000620005ed6200054d565b9050620005fb8282620005ab565b919050565b600067ffffffffffffffff8211156200061e576200061d6200057c565b5b62000629826200056b565b9050602081019050919050565b60005b838110156200065657808201518184015260208101905062000639565b60008484015250505050565b600062000679620006738462000600565b620005e1565b90508281526020810184848401111562000698576200069762000566565b5b620006a584828562000636565b509392505050565b600082601f830112620006c557620006c462000561565b5b8151620006d784826020860162000662565b91505092915050565b6000819050919050565b620006f581620006e0565b81146200070157600080fd5b50565b6000815190506200071581620006ea565b92915050565b6000806000806080858703121562000738576200073762000557565b5b600085015167ffffffffffffffff8111156200075957620007586200055c565b5b6200076787828801620006ad565b945050602085015167ffffffffffffffff8111156200078b576200078a6200055c565b5b6200079987828801620006ad565b9350506040620007ac8782880162000704565b925050606085015167ffffffffffffffff811115620007d057620007cf6200055c565b5b620007de87828801620006ad565b91505092959194509250565b600081519050919050565b7f4e487b7100000000000000000000000000000000000000000000000000000000600052602260045260246000fd5b600060028204905060018216806200083d57607f821691505b602082108103620008535762000852620007f5565b5b50919050565b60008190508160005260206000209050919050565b60006020601f8301049050919050565b600082821b905092915050565b600060088302620008bd7fffffffffffffffffffffffffffffffffffffffffffffffffffffffffffffffff826200087e565b620008c986836200087e565b95508019841693508086168417925050509392505050565b6000819050919050565b60006200090c620009066200090084620006e0565b620008e1565b620006e0565b9050919050565b6000819050919050565b6200092883620008eb565b62000940620009378262000913565b8484546200088b565b825550505050565b600090565b6200095762000948565b620009648184846200091d565b505050565b5b818110156200098c57620009806000826200094d565b6001810190506200096a565b5050565b601f821115620009db57620009a58162000859565b620009b0846200086e565b81016020851015620009c0578190505b620009d8620009cf856200086e565b83018262000969565b50505b505050565b600082821c905092915050565b600062000a0060001984600802620009e0565b1980831691505092915050565b600062000a1b8383620009ed565b9150826002028217905092915050565b62000a3682620007ea565b67ffffffffffffffff81111562000a525762000a516200057c565b5b62000a5e825462000824565b62000a6b82828562000990565b600060209050601f83116001811462000aa3576000841562000a8e578287015190505b62000a9a858262000a0d565b86555062000b0a565b601f19841662000ab38662000859565b60005b8281101562000add5784890151825560018201915060208501945060208101905062000ab6565b8683101562000afd578489015162000af9601f891682620009ed565b8355505b6001600288020188555050505b505050505050565b600073ffffffffffffffffffffffffffffffffffffffff82169050919050565b600062000b3f8262000b12565b9050919050565b62000b518162000b32565b82525050565b600060208201905062000b6e600083018462000b46565b92915050565b7f4e487b7100000000000000000000000000000000000000000000000000000000600052601160045260246000fd5b600062000bb082620006e0565b915062000bbd83620006e0565b925082820190508082111562000bd85762000bd762000b74565b5b92915050565b62000be981620006e0565b82525050565b600060608201905062000c06600083018662000b46565b62000c15602083018562000bde565b62000c24604083018462000bde565b949350505050565b600060208201905062000c43600083018462000bde565b92915050565b611f0c8062000c596000396000f3fe6080604052600436106101ba5760003560e01c80635c975abb116100ec57806395d89b411161008a578063ca9923bd11610064578063ca9923bd146105a1578063d59a0a72146105b8578063dd62ed3e146105e1578063f2fde38b1461061e576101c1565b806395d89b411461050e578063a9059cbb14610539578063ab2adc0014610576576101c1565b806370a08231116100c657806370a0823114610464578063715018a6146104a15780637ff9b596146104b85780638da5cb5b146104e3576101c1565b80635c975abb146103e55780636999ac93146104105780636c11bcd31461043b576101c1565b806321a7cfe4116101595780632c4c6b87116101335780632c4c6b871461035c578063313ce567146103875780633610724e146103b2578063456068d2146103ce576101c1565b806321a7cfe4146102c957806323b872dd146102f45780632c07f87114610331576101c1565b8063095ea7b311610195578063095ea7b3146102215780631031e36e1461025e5780631411dab01461027557806318160ddd1461029e576101c1565b806243286e146101c3578063067ab9e3146101ec57806306fdde03146101f6576101c1565b366101c157005b005b3480156101cf57600080fd5b506101ea60048036038101906101e591906117fb565b610647565b005b6101f461069a565b005b34801561020257600080fd5b5061020b6106b5565b60405161021891906118b8565b60405180910390f35b34801561022d57600080fd5b5061024860048036038101906102439190611938565b610747565b6040516102559190611993565b60405180910390f35b34801561026a57600080fd5b5061027361076a565b005b34801561028157600080fd5b5061029c600480360381019061029791906117fb565b6107b3565b005b3480156102aa57600080fd5b506102b3610806565b6040516102c091906119bd565b60405180910390f35b3480156102d557600080fd5b506102de610810565b6040516102eb91906119bd565b60405180910390f35b34801561030057600080fd5b5061031b600480360381019061031691906119d8565b610816565b6040516103289190611993565b60405180910390f35b34801561033d57600080fd5b50610346610845565b60405161035391906118b8565b60405180910390f35b34801561036857600080fd5b506103716108d3565b60405161037e9190611a47565b60405180910390f35b34801561039357600080fd5b5061039c6108e6565b6040516103a99190611a47565b60405180910390f35b6103cc60048036038101906103c791906117fb565b6108ef565b005b3480156103da57600080fd5b506103e3610954565b005b3480156103f157600080fd5b506103fa61099d565b6040516104079190611993565b60405180910390f35b34801561041c57600080fd5b506104256109b4565b60405161043291906119bd565b60405180910390f35b34801561044757600080fd5b50610462600480360381019061045d91906117fb565b6109ba565b005b34801561047057600080fd5b5061048b60048036038101906104869190611a62565b610b58565b60405161049891906119bd565b60405180910390f35b3480156104ad57600080fd5b506104b6610ba0565b005b3480156104c457600080fd5b506104cd610bb4565b6040516104da91906119bd565b60405180910390f35b3480156104ef57600080fd5b506104f8610bba565b6040516105059190611a9e565b60405180910390f35b34801561051a57600080fd5b50610523610be4565b60405161053091906118b8565b60405180910390f35b34801561054557600080fd5b50610560600480360381019061055b9190611938565b610c76565b60405161056d9190611993565b60405180910390f35b34801561058257600080fd5b5061058b610c99565b60405161059891906119bd565b60405180910390f35b3480156105ad57600080fd5b506105b6610c9f565b005b3480156105c457600080fd5b506105df60048036038101906105da9190611ae5565b610cf0565b005b3480156105ed57600080fd5b5061060860048036038101906106039190611b12565b610d64565b60405161061591906119bd565b60405180910390f35b34801561062a57600080fd5b5061064560048036038101906106409190611a62565b610deb565b005b61064f610e71565b60006006549050816006819055507f8d45721c0edcd094d637f66e971ce1167f974eed315c9a31b6ce145067760acc818360405161068e929190611b52565b60405180910390a15050565b34600a60008282546106ac9190611baa565b92505081905550565b6060600380546106c490611c0d565b80601f01602080910402602001604051908101604052809291908181526020018280546106f090611c0d565b801561073d5780601f106107125761010080835404028352916020019161073d565b820191906000526020600020905b81548152906001019060200180831161072057829003601f168201915b5050505050905090565b600080610752610ef8565b905061075f818585610f00565b600191505092915050565b610772610e71565b61077a610f12565b7f203c4bd3e526634f661575359ff30de3b0edaba6c2cb1eac60f730b6d2d9d536336040516107a99190611a9e565b60405180910390a1565b6107bb610e71565b60006009549050816009819055507f4959ad9023bf5b492922b51fbc7c0b5e5ec66aa39700e0da6d8af9b2d430898e81836040516107fa929190611b52565b60405180910390a15050565b6000600254905090565b60065481565b600080610821610ef8565b905061082e858285610f75565b61083985858561100a565b60019150509392505050565b6007805461085290611c0d565b80601f016020809104026020016040519081016040528092919081815260200182805461087e90611c0d565b80156108cb5780601f106108a0576101008083540402835291602001916108cb565b820191906000526020600020905b8154815290600101906020018083116108ae57829003601f168201915b505050505081565b600560159054906101000a900460ff1681565b60006012905090565b6108f76110fe565b600854816109059190611c3e565b341015610947576040517f08c379a000000000000000000000000000000000000000000000000000000000815260040161093e90611ccc565b60405180910390fd5b610951338261113f565b50565b61095c610e71565b6109646111c1565b7fa1e8a54850dbd7f520bcc09f47bff152294b77b2081da545a7adf531b7ea283b336040516109939190611a9e565b60405180910390a1565b6000600560149054906101000a900460ff16905090565b60095481565b6109c26110fe565b806109cc33610b58565b1015610a0d576040517f08c379a0000000000000000000000000000000000000000000000000000000008152600401610a0490611d38565b60405180910390fd5b600060085482610a1d9190611c3e565b905080471015610a62576040517f08c379a0000000000000000000000000000000000000000000000000000000008152600401610a5990611da4565b60405180910390fd5b610a6c3383611224565b60003373ffffffffffffffffffffffffffffffffffffffff1682604051610a9290611df5565b60006040518083038185875af1925050503d8060008114610acf576040519150601f19603f3d011682016040523d82523d6000602084013e610ad4565b606091505b5050905080610b18576040517f08c379a0000000000000000000000000000000000000000000000000000000008152600401610b0f90611e56565b60405180910390fd5b7f2dcf9433d75db0d8b1c172641f85e319ffe4ad22e108a95d1847ceb906e5195d338484604051610b4b93929190611e76565b60405180910390a1505050565b60008060008373ffffffffffffffffffffffffffffffffffffffff1673ffffffffffffffffffffffffffffffffffffffff168152602001908152602001600020549050919050565b610ba8610e71565b610bb260006112a6565b565b60085481565b6000600560009054906101000a900473ffffffffffffffffffffffffffffffffffffffff16905090565b606060048054610bf390611c0d565b80601f0160208091040260200160405190810160405280929190818152602001828054610c1f90611c0d565b8015610c6c5780601f10610c4157610100808354040283529160200191610c6c565b820191906000526020600020905b815481529060010190602001808311610c4f57829003601f168201915b5050505050905090565b600080610c81610ef8565b9050610c8e81858561100a565b600191505092915050565b600a5481565b610ca7610e71565b6000600a5490506000600a819055507ff40244d06b38dddb34c6d6aa2b7dd472b809abff3679d1cb77e6ffe291eb74f681604051610ce591906119bd565b60405180910390a150565b610cf8610e71565b6000600560159054906101000a900460ff16905081600560156101000a81548160ff021916908360ff1602179055507f3c69b5124095b1af73b91f91de2296fe8383fbd6670d7f589a2ec8363ddb1f398183604051610d58929190611ead565b60405180910390a15050565b6000600160008473ffffffffffffffffffffffffffffffffffffffff1673ffffffffffffffffffffffffffffffffffffffff16815260200190815260200160002060008373ffffffffffffffffffffffffffffffffffffffff1673ffffffffffffffffffffffffffffffffffffffff16815260200190815260200160002054905092915050565b610df3610e71565b600073ffffffffffffffffffffffffffffffffffffffff168173ffffffffffffffffffffffffffffffffffffffff1603610e655760006040517f1e4fbdf7000000000000000000000000000000000000000000000000000000008152600401610e5c9190611a9e565b60405180910390fd5b610e6e816112a6565b50565b610e79610ef8565b73ffffffffffffffffffffffffffffffffffffffff16610e97610bba565b73ffffffffffffffffffffffffffffffffffffffff1614610ef657610eba610ef8565b6040517f118cdaa7000000000000000000000000000000000000000000000000000000008152600401610eed9190611a9e565b60405180910390fd5b565b600033905090565b610f0d838383600161136c565b505050565b610f1a6110fe565b6001600560146101000a81548160ff0219169083151502179055507f62e78cea01bee320cd4e420270b5ea74000d11b0c9f74754ebdbfc544b05a258610f5e610ef8565b604051610f6b9190611a9e565b60405180910390a1565b6000610f818484610d64565b90507fffffffffffffffffffffffffffffffffffffffffffffffffffffffffffffffff8110156110045781811015610ff4578281836040517ffb8f41b2000000000000000000000000000000000000000000000000000000008152600401610feb93929190611e76565b60405180910390fd5b6110038484848403600061136c565b5b50505050565b600073ffffffffffffffffffffffffffffffffffffffff168373ffffffffffffffffffffffffffffffffffffffff160361107c5760006040517f96c6fd1e0000000000000000000000000000000000000000000000000000000081526004016110739190611a9e565b60405180910390fd5b600073ffffffffffffffffffffffffffffffffffffffff168273ffffffffffffffffffffffffffffffffffffffff16036110ee5760006040517fec442f050000000000000000000000000000000000000000000000000000000081526004016110e59190611a9e565b60405180910390fd5b6110f9838383611543565b505050565b61110661099d565b1561113d576040517fd93c066500000000000000000000000000000000000000000000000000000000815260040160405180910390fd5b565b600073ffffffffffffffffffffffffffffffffffffffff168273ffffffffffffffffffffffffffffffffffffffff16036111b15760006040517fec442f050000000000000000000000000000000000000000000000000000000081526004016111a89190611a9e565b60405180910390fd5b6111bd60008383611543565b5050565b6111c961155b565b6000600560146101000a81548160ff0219169083151502179055507f5db9ee0a495bf2e6ff9c91a7834c1ba4fdd244a5e8aa4e537bd38aeae4b073aa61120d610ef8565b60405161121a9190611a9e565b60405180910390a1565b600073ffffffffffffffffffffffffffffffffffffffff168273ffffffffffffffffffffffffffffffffffffffff16036112965760006040517f96c6fd1e00000000000000000000000000000000000000000000000000000000815260040161128d9190611a9e565b60405180910390fd5b6112a282600083611543565b5050565b6000600560009054906101000a900473ffffffffffffffffffffffffffffffffffffffff16905081600560006101000a81548173ffffffffffffffffffffffffffffffffffffffff021916908373ffffffffffffffffffffffffffffffffffffffff1602179055508173ffffffffffffffffffffffffffffffffffffffff168173ffffffffffffffffffffffffffffffffffffffff167f8be0079c531659141344cd1fd0a4f28419497f9722a3daafe3b4186f6b6457e060405160405180910390a35050565b600073ffffffffffffffffffffffffffffffffffffffff168473ffffffffffffffffffffffffffffffffffffffff16036113de5760006040517fe602df050000000000000000000000000000000000000000000000000000000081526004016113d59190611a9e565b60405180910390fd5b600073ffffffffffffffffffffffffffffffffffffffff168373ffffffffffffffffffffffffffffffffffffffff16036114505760006040517f94280d620000000000000000000000000000000000000000000000000000000081526004016114479190611a9e565b60405180910390fd5b81600160008673ffffffffffffffffffffffffffffffffffffffff1673ffffffffffffffffffffffffffffffffffffffff16815260200190815260200160002060008573ffffffffffffffffffffffffffffffffffffffff1673ffffffffffffffffffffffffffffffffffffffff16815260200190815260200160002081905550801561153d578273ffffffffffffffffffffffffffffffffffffffff168473ffffffffffffffffffffffffffffffffffffffff167f8c5be1e5ebec7d5bd14f71427d1e84f3dd0314c0f7b2291e5b200ac8c7c3b9258460405161153491906119bd565b60405180910390a35b50505050565b61154b6110fe565b61155683838361159b565b505050565b61156361099d565b611599576040517f8dfc202b00000000000000000000000000000000000000000000000000000000815260040160405180910390fd5b565b600073ffffffffffffffffffffffffffffffffffffffff168373ffffffffffffffffffffffffffffffffffffffff16036115ed5780600260008282546115e19190611baa565b925050819055506116c0565b60008060008573ffffffffffffffffffffffffffffffffffffffff1673ffffffffffffffffffffffffffffffffffffffff16815260200190815260200160002054905081811015611679578381836040517fe450d38c00000000000000000000000000000000000000000000000000000000815260040161167093929190611e76565b60405180910390fd5b8181036000808673ffffffffffffffffffffffffffffffffffffffff1673ffffffffffffffffffffffffffffffffffffffff16815260200190815260200160002081905550505b600073ffffffffffffffffffffffffffffffffffffffff168273ffffffffffffffffffffffffffffffffffffffff16036117095780600260008282540392505081905550611756565b806000808473ffffffffffffffffffffffffffffffffffffffff1673ffffffffffffffffffffffffffffffffffffffff168152602001908152602001600020600082825401925050819055505b8173ffffffffffffffffffffffffffffffffffffffff168373ffffffffffffffffffffffffffffffffffffffff167fddf252ad1be2c89b69c2b068fc378daa952ba7f163c4a11628f55a4df523b3ef836040516117b391906119bd565b60405180910390a3505050565b600080fd5b6000819050919050565b6117d8816117c5565b81146117e357600080fd5b50565b6000813590506117f5816117cf565b92915050565b600060208284031215611811576118106117c0565b5b600061181f848285016117e6565b91505092915050565b600081519050919050565b600082825260208201905092915050565b60005b83811015611862578082015181840152602081019050611847565b60008484015250505050565b6000601f19601f8301169050919050565b600061188a82611828565b6118948185611833565b93506118a4818560208601611844565b6118ad8161186e565b840191505092915050565b600060208201905081810360008301526118d2818461187f565b905092915050565b600073ffffffffffffffffffffffffffffffffffffffff82169050919050565b6000611905826118da565b9050919050565b611915816118fa565b811461192057600080fd5b50565b6000813590506119328161190c565b92915050565b6000806040838503121561194f5761194e6117c0565b5b600061195d85828601611923565b925050602061196e858286016117e6565b9150509250929050565b60008115159050919050565b61198d81611978565b82525050565b60006020820190506119a86000830184611984565b92915050565b6119b7816117c5565b82525050565b60006020820190506119d260008301846119ae565b92915050565b6000806000606084860312156119f1576119f06117c0565b5b60006119ff86828701611923565b9350506020611a1086828701611923565b9250506040611a21868287016117e6565b9150509250925092565b600060ff82169050919050565b611a4181611a2b565b82525050565b6000602082019050611a5c6000830184611a38565b92915050565b600060208284031215611a7857611a776117c0565b5b6000611a8684828501611923565b91505092915050565b611a98816118fa565b82525050565b6000602082019050611ab36000830184611a8f565b92915050565b611ac281611a2b565b8114611acd57600080fd5b50565b600081359050611adf81611ab9565b92915050565b600060208284031215611afb57611afa6117c0565b5b6000611b0984828501611ad0565b91505092915050565b60008060408385031215611b2957611b286117c0565b5b6000611b3785828601611923565b9250506020611b4885828601611923565b9150509250929050565b6000604082019050611b6760008301856119ae565b611b7460208301846119ae565b9392505050565b7f4e487b7100000000000000000000000000000000000000000000000000000000600052601160045260246000fd5b6000611bb5826117c5565b9150611bc0836117c5565b9250828201905080821115611bd857611bd7611b7b565b5b92915050565b7f4e487b7100000000000000000000000000000000000000000000000000000000600052602260045260246000fd5b60006002820490506001821680611c2557607f821691505b602082108103611c3857611c37611bde565b5b50919050565b6000611c49826117c5565b9150611c54836117c5565b9250828202611c62816117c5565b91508282048414831517611c7957611c78611b7b565b5b5092915050565b7f496e73756666696369656e74207061796d656e74000000000000000000000000600082015250565b6000611cb6601483611833565b9150611cc182611c80565b602082019050919050565b60006020820190508181036000830152611ce581611ca9565b9050919050565b7f496e73756666696369656e7420746f6b656e2062616c616e6365000000000000600082015250565b6000611d22601a83611833565b9150611d2d82611cec565b602082019050919050565b60006020820190508181036000830152611d5181611d15565b9050919050565b7f436f6e7472616374206c61636b73206c69717569646974790000000000000000600082015250565b6000611d8e601883611833565b9150611d9982611d58565b602082019050919050565b60006020820190508181036000830152611dbd81611d81565b9050919050565b600081905092915050565b50565b6000611ddf600083611dc4565b9150611dea82611dcf565b600082019050919050565b6000611e0082611dd2565b9150819050919050565b7f5472616e73666572206661696c65640000000000000000000000000000000000600082015250565b6000611e40600f83611833565b9150611e4b82611e0a565b602082019050919050565b60006020820190508181036000830152611e6f81611e33565b9050919050565b6000606082019050611e8b6000830186611a8f565b611e9860208301856119ae565b611ea560408301846119ae565b949350505050565b6000604082019050611ec26000830185611a38565b611ecf6020830184611a38565b939250505056fea2646970667358221220a4a6d39c744cbc46b71ba367f9edb4eb60857c663dd613e040fe4e8af1b51e7564736f6c63430008140033",
  "linkReferences": {},
  "deployedLinkReferences": {}
}